{"abi":[{"type":"constructor","inputs":[{"name":"initialSupply","type":"uint256","internalType":"uint256"}],"stateMutability":"nonpayable"},{"type":"function","name":"MAX_SUPPLY","inputs":[],"outputs":[{"name":"","type":"uint256","internalType":"uint256"}],"stateMutability":"view"},{"type":"function","name":"allowance","inputs":[{"name":"owner","type":"address","internalType":"address"},{"name":"spender","type":"address","internalType":"address"}],"outputs":[{"name":"","type":"uint256","internalType":"uint256"}],"stateMutability":"view"},{"type":"function","name":"approve","inputs":[{"name":"spender","type":"address","internalType":"address"},{"name":"value","type":"uint256","internalType":"uint256"}],"outputs":[{"name":"","type":"bool","internalType":"bool"}],"stateMutability":"nonpayable"},{"type":"function","name":"balanceOf","inputs":[{"name":"account","type":"address","internalType":"address"}],"outputs":[{"name":"","type":"uint256","internalType":"uint256"}],"stateMutability":"view"},{"type":"function","name":"burn","inputs":[{"name":"amount","type":"uint256","internalType":"uint256"}],"outputs":[],"stateMutability":"nonpayable"},{"type":"function","name":"decimals","inputs":[],"outputs":[{"name":"","type":"uint8","internalType":"uint8"}],"stateMutability":"view"},{"type":"function","name":"mint","inputs":[{"name":"to","type":"address","internalType":"address"},{"name":"amount","type":"uint256","internalType":"uint256"}],"outputs":[],"stateMutability":"nonpayable"},{"type":"function","name":"name","inputs":[],"outputs":[{"name":"","type":"string","internalType":"string"}],"stateMutability":"view"},{"type":"function","name":"owner","inputs":[],"outputs":[{"name":"","type":"address","internalType":"address"}],"stateMutability":"view"},{"type":"function","name":"renounceOwnership","inputs":[],"outputs":[],"stateMutability":"nonpayable"},{"type":"function","name":"symbol","inputs":[],"outputs":[{"name":"","type":"string","internalType":"string"}],"stateMutability":"view"},{"type":"function","name":"totalSupply","inputs":[],"outputs":[{"name":"","type":"uint256","internalType":"uint256"}],"stateMutability":"view"},{"type":"function","name":"transfer","inputs":[{"name":"to","type":"address","internalType":"address"},{"name":"value","type":"uint256","internalType":"uint256"}],"outputs":[{"name":"","type":"bool","internalType":"bool"}],"stateMutability":"nonpayable"},{"type":"function","name":"transferFrom","inputs":[{"name":"from","type":"address","internalType":"address"},{"name":"to","type":"address","internalType":"address"},{"name":"value","type":"uint256","internalType":"uint256"}],"outputs":[{"name":"","type":"bool","internalType":"bool"}],"stateMutability":"nonpayable"},{"type":"function","name":"transferOwnership","inputs":[{"name":"newOwner","type":"address","internalType":"address"}],"outputs":[],"stateMutability":"nonpayable"},{"type":"event","name":"Approval","inputs":[{"name":"owner","type":"address","indexed":true,"internalType":"address"},{"name":"spender","type":"address","indexed":true,"internalType":"address"},{"name":"value","type":"uint256","indexed":false,"internalType":"uint256"}],"anonymous":false},{"type":"event","name":"OwnershipTransferred","inputs":[{"name":"previousOwner","type":"address","indexed":true,"internalType":"address"},{"name":"newOwner","type":"address","indexed":true,"internalType":"address"}],"anonymous":false},{"type":"event","name":"Transfer","inputs":[{"name":"from","type":"address","indexed":true,"internalType":"address"},{"name":"to","type":"address","indexed":true,"internalType":"address"},{"name":"value","type":"uint256","indexed":false,"internalType":"uint256"}],"anonymous":false},{"type":"error","name":"ERC20InsufficientAllowance","inputs":[{"name":"spender","type":"address","internalType":"address"},{"name":"allowance","type":"uint256","internalType":"uint256"},{"name":"needed","type":"uint256","internalType":"uint256"}]},{"type":"error","name":"ERC20InsufficientBalance","inputs":[{"name":"sender","type":"address","internalType":"address"},{"name":"balance","type":"uint256","internalType":"uint256"},{"name":"needed","type":"uint256","internalType":"uint256"}]},{"type":"error","name":"ERC20InvalidApprover","inputs":[{"name":"approver","type":"address","internalType":"address"}]},{"type":"error","name":"ERC20InvalidReceiver","inputs":[{"name":"receiver","type":"address","internalType":"address"}]},{"type":"error","name":"ERC20InvalidSender","inputs":[{"name":"sender","type":"address","internalType":"address"}]},{"type":"error","name":"ERC20InvalidSpender","inputs":[{"name":"spender","type":"address","internalType":"address"}]},{"type":"error","name":"OwnableInvalidOwner","inputs":[{"name":"owner","type":"address","internalType":"address"}]},{"type":"error","name":"OwnableUnauthorizedAccount","inputs":[{"name":"account","type":"address","internalType":"address"}]}],"bytecode":{"object":"0x608060405234801561000f575f5ffd5b50604051611d25380380611d258339818101604052810190610031919061053e565b336040518060400160405280601181526020017f4155534420537461626c6520546f6b656e0000000000000000000000000000008152506040518060400160405280600481526020017f415553440000000000000000000000000000000000000000000000000000000081525081600390816100ad91906107ae565b5080600490816100bd91906107ae565b5050505f73ffffffffffffffffffffffffffffffffffffffff168173ffffffffffffffffffffffffffffffffffffffff1603610130575f6040517f1e4fbdf700000000000000000000000000000000000000000000000000000000815260040161012791906108bc565b60405180910390fd5b61013f816101a660201b60201c565b506c0c9f2c9cd04674edea40000000811115610190576040517f08c379a00000000000000000000000000000000000000000000000000000000081526004016101879061092f565b60405180910390fd5b6101a0338261026960201b60201c565b50610a0a565b5f60055f9054906101000a900473ffffffffffffffffffffffffffffffffffffffff1690508160055f6101000a81548173ffffffffffffffffffffffffffffffffffffffff021916908373ffffffffffffffffffffffffffffffffffffffff1602179055508173ffffffffffffffffffffffffffffffffffffffff168173ffffffffffffffffffffffffffffffffffffffff167f8be0079c531659141344cd1fd0a4f28419497f9722a3daafe3b4186f6b6457e060405160405180910390a35050565b5f73ffffffffffffffffffffffffffffffffffffffff168273ffffffffffffffffffffffffffffffffffffffff16036102d9575f6040517fec442f050000000000000000000000000000000000000000000000000000000081526004016102d091906108bc565b60405180910390fd5b6102ea5f83836102ee60201b60201c565b5050565b5f73ffffffffffffffffffffffffffffffffffffffff168373ffffffffffffffffffffffffffffffffffffffff160361033e578060025f828254610332919061097a565b9250508190555061040c565b5f5f5f8573ffffffffffffffffffffffffffffffffffffffff1673ffffffffffffffffffffffffffffffffffffffff1681526020019081526020015f20549050818110156103c7578381836040517fe450d38c0000000000000000000000000000000000000000000000000000000081526004016103be939291906109bc565b60405180910390fd5b8181035f5f8673ffffffffffffffffffffffffffffffffffffffff1673ffffffffffffffffffffffffffffffffffffffff1681526020019081526020015f2081905550505b5f73ffffffffffffffffffffffffffffffffffffffff168273ffffffffffffffffffffffffffffffffffffffff1603610453578060025f828254039250508190555061049d565b805f5f8473ffffffffffffffffffffffffffffffffffffffff1673ffffffffffffffffffffffffffffffffffffffff1681526020019081526020015f205f82825401925050819055505b8173ffffffffffffffffffffffffffffffffffffffff168373ffffffffffffffffffffffffffffffffffffffff167fddf252ad1be2c89b69c2b068fc378daa952ba7f163c4a11628f55a4df523b3ef836040516104fa91906109f1565b60405180910390a3505050565b5f5ffd5b5f819050919050565b61051d8161050b565b8114610527575f5ffd5b50565b5f8151905061053881610514565b92915050565b5f6020828403121561055357610552610507565b5b5f6105608482850161052a565b91505092915050565b5f81519050919050565b7f4e487b71000000000000000000000000000000000000000000000000000000005f52604160045260245ffd5b7f4e487b71000000000000000000000000000000000000000000000000000000005f52602260045260245ffd5b5f60028204905060018216806105e457607f821691505b6020821081036105f7576105f66105a0565b5b50919050565b5f819050815f5260205f209050919050565b5f6020601f8301049050919050565b5f82821b905092915050565b5f600883026106597fffffffffffffffffffffffffffffffffffffffffffffffffffffffffffffffff8261061e565b610663868361061e565b95508019841693508086168417925050509392505050565b5f819050919050565b5f61069e6106996106948461050b565b61067b565b61050b565b9050919050565b5f819050919050565b6106b783610684565b6106cb6106c3826106a5565b84845461062a565b825550505050565b5f5f905090565b6106e26106d3565b6106ed8184846106ae565b505050565b5f5b82811015610713576107085f8284016106da565b6001810190506106f4565b505050565b601f821115610766578282111561076557610732816105fd565b61073b8361060f565b6107448561060f565b6020861015610751575f90505b808301610760828403826106f2565b505050505b5b505050565b5f82821c905092915050565b5f6107865f198460080261076b565b1980831691505092915050565b5f61079e8383610777565b9150826002028217905092915050565b6107b782610569565b67ffffffffffffffff8111156107d0576107cf610573565b5b6107da82546105cd565b6107e5828285610718565b5f60209050601f831160018114610816575f8415610804578287015190505b61080e8582610793565b865550610875565b601f198416610824866105fd565b5f5b8281101561084b57848901518255600182019150602085019450602081019050610826565b868310156108685784890151610864601f891682610777565b8355505b6001600288020188555050505b505050505050565b5f73ffffffffffffffffffffffffffffffffffffffff82169050919050565b5f6108a68261087d565b9050919050565b6108b68161089c565b82525050565b5f6020820190506108cf5f8301846108ad565b92915050565b5f82825260208201905092915050565b7f4d617820737570706c79206578636565646564000000000000000000000000005f82015250565b5f6109196013836108d5565b9150610924826108e5565b602082019050919050565b5f6020820190508181035f8301526109468161090d565b9050919050565b7f4e487b71000000000000000000000000000000000000000000000000000000005f52601160045260245ffd5b5f6109848261050b565b915061098f8361050b565b92508282019050808211156109a7576109a661094d565b5b92915050565b6109b68161050b565b82525050565b5f6060820190506109cf5f8301866108ad565b6109dc60208301856109ad565b6109e960408301846109ad565b949350505050565b5f602082019050610a045f8301846109ad565b92915050565b61130e80610a175f395ff3fe608060405234801561000f575f5ffd5b50600436106100f3575f3560e01c806342966c681161009557806395d89b411161006457806395d89b411461025f578063a9059cbb1461027d578063dd62ed3e146102ad578063f2fde38b146102dd576100f3565b806342966c68146101eb57806370a0823114610207578063715018a6146102375780638da5cb5b14610241576100f3565b806323b872dd116100d157806323b872dd14610163578063313ce5671461019357806332cb6b0c146101b157806340c10f19146101cf576100f3565b806306fdde03146100f7578063095ea7b31461011557806318160ddd14610145575b5f5ffd5b6100ff6102f9565b60405161010c9190610ef4565b60405180910390f35b61012f600480360381019061012a9190610fa5565b610389565b60405161013c9190610ffd565b60405180910390f35b61014d6103ab565b60405161015a9190611025565b60405180910390f35b61017d6004803603810190610178919061103e565b6103b4565b60405161018a9190610ffd565b60405180910390f35b61019b6103e2565b6040516101a891906110a9565b60405180910390f35b6101b96103ea565b6040516101c69190611025565b60405180910390f35b6101e960048036038101906101e49190610fa5565b6103fb565b005b610205600480360381019061020091906110c2565b610473565b005b610221600480360381019061021c91906110ed565b610480565b60405161022e9190611025565b60405180910390f35b61023f6104c5565b005b6102496104d8565b6040516102569190611127565b60405180910390f35b610267610500565b6040516102749190610ef4565b60405180910390f35b61029760048036038101906102929190610fa5565b610590565b6040516102a49190610ffd565b60405180910390f35b6102c760048036038101906102c29190611140565b6105b2565b6040516102d49190611025565b60405180910390f35b6102f760048036038101906102f291906110ed565b610634565b005b606060038054610308906111ab565b80601f0160208091040260200160405190810160405280929190818152602001828054610334906111ab565b801561037f5780601f106103565761010080835404028352916020019161037f565b820191905f5260205f20905b81548152906001019060200180831161036257829003601f168201915b5050505050905090565b5f5f6103936106b8565b90506103a08185856106bf565b600191505092915050565b5f600254905090565b5f5f6103be6106b8565b90506103cb8582856106d1565b6103d6858585610764565b60019150509392505050565b5f6012905090565b6c0c9f2c9cd04674edea4000000081565b610403610854565b6c0c9f2c9cd04674edea400000008161041a6103ab565b6104249190611208565b1115610465576040517f08c379a000000000000000000000000000000000000000000000000000000000815260040161045c90611285565b60405180910390fd5b61046f82826108db565b5050565b61047d338261095a565b50565b5f5f5f8373ffffffffffffffffffffffffffffffffffffffff1673ffffffffffffffffffffffffffffffffffffffff1681526020019081526020015f20549050919050565b6104cd610854565b6104d65f6109d9565b565b5f60055f9054906101000a900473ffffffffffffffffffffffffffffffffffffffff16905090565b60606004805461050f906111ab565b80601f016020809104026020016040519081016040528092919081815260200182805461053b906111ab565b80156105865780601f1061055d57610100808354040283529160200191610586565b820191905f5260205f20905b81548152906001019060200180831161056957829003601f168201915b5050505050905090565b5f5f61059a6106b8565b90506105a7818585610764565b600191505092915050565b5f60015f8473ffffffffffffffffffffffffffffffffffffffff1673ffffffffffffffffffffffffffffffffffffffff1681526020019081526020015f205f8373ffffffffffffffffffffffffffffffffffffffff1673ffffffffffffffffffffffffffffffffffffffff1681526020019081526020015f2054905092915050565b61063c610854565b5f73ffffffffffffffffffffffffffffffffffffffff168173ffffffffffffffffffffffffffffffffffffffff16036106ac575f6040517f1e4fbdf70000000000000000000000000000000000000000000000000000000081526004016106a39190611127565b60405180910390fd5b6106b5816109d9565b50565b5f33905090565b6106cc8383836001610a9c565b505050565b5f6106dc84846105b2565b90507fffffffffffffffffffffffffffffffffffffffffffffffffffffffffffffffff81101561075e578181101561074f578281836040517ffb8f41b2000000000000000000000000000000000000000000000000000000008152600401610746939291906112a3565b60405180910390fd5b61075d84848484035f610a9c565b5b50505050565b5f73ffffffffffffffffffffffffffffffffffffffff168373ffffffffffffffffffffffffffffffffffffffff16036107d4575f6040517f96c6fd1e0000000000000000000000000000000000000000000000000000000081526004016107cb9190611127565b60405180910390fd5b5f73ffffffffffffffffffffffffffffffffffffffff168273ffffffffffffffffffffffffffffffffffffffff1603610844575f6040517fec442f0500000000000000000000000000000000000000000000000000000000815260040161083b9190611127565b60405180910390fd5b61084f838383610c6b565b505050565b61085c6106b8565b73ffffffffffffffffffffffffffffffffffffffff1661087a6104d8565b73ffffffffffffffffffffffffffffffffffffffff16146108d95761089d6106b8565b6040517f118cdaa70000000000000000000000000000000000000000000000000000000081526004016108d09190611127565b60405180910390fd5b565b5f73ffffffffffffffffffffffffffffffffffffffff168273ffffffffffffffffffffffffffffffffffffffff160361094b575f6040517fec442f050000000000000000000000000000000000000000000000000000000081526004016109429190611127565b60405180910390fd5b6109565f8383610c6b565b5050565b5f73ffffffffffffffffffffffffffffffffffffffff168273ffffffffffffffffffffffffffffffffffffffff16036109ca575f6040517f96c6fd1e0000000000000000000000000000000000000000000000000000000081526004016109c19190611127565b60405180910390fd5b6109d5825f83610c6b565b5050565b5f60055f9054906101000a900473ffffffffffffffffffffffffffffffffffffffff1690508160055f6101000a81548173ffffffffffffffffffffffffffffffffffffffff021916908373ffffffffffffffffffffffffffffffffffffffff1602179055508173ffffffffffffffffffffffffffffffffffffffff168173ffffffffffffffffffffffffffffffffffffffff167f8be0079c531659141344cd1fd0a4f28419497f9722a3daafe3b4186f6b6457e060405160405180910390a35050565b5f73ffffffffffffffffffffffffffffffffffffffff168473ffffffffffffffffffffffffffffffffffffffff1603610b0c575f6040517fe602df05000000000000000000000000000000000000000000000000000000008152600401610b039190611127565b60405180910390fd5b5f73ffffffffffffffffffffffffffffffffffffffff168373ffffffffffffffffffffffffffffffffffffffff1603610b7c575f6040517f94280d62000000000000000000000000000000000000000000000000000000008152600401610b739190611127565b60405180910390fd5b8160015f8673ffffffffffffffffffffffffffffffffffffffff1673ffffffffffffffffffffffffffffffffffffffff1681526020019081526020015f205f8573ffffffffffffffffffffffffffffffffffffffff1673ffffffffffffffffffffffffffffffffffffffff1681526020019081526020015f20819055508015610c65578273ffffffffffffffffffffffffffffffffffffffff168473ffffffffffffffffffffffffffffffffffffffff167f8c5be1e5ebec7d5bd14f71427d1e84f3dd0314c0f7b2291e5b200ac8c7c3b92584604051610c5c9190611025565b60405180910390a35b50505050565b5f73ffffffffffffffffffffffffffffffffffffffff168373ffffffffffffffffffffffffffffffffffffffff1603610cbb578060025f828254610caf9190611208565b92505081905550610d89565b5f5f5f8573ffffffffffffffffffffffffffffffffffffffff1673ffffffffffffffffffffffffffffffffffffffff1681526020019081526020015f2054905081811015610d44578381836040517fe450d38c000000000000000000000000000000000000000000000000000000008152600401610d3b939291906112a3565b60405180910390fd5b8181035f5f8673ffffffffffffffffffffffffffffffffffffffff1673ffffffffffffffffffffffffffffffffffffffff1681526020019081526020015f2081905550505b5f73ffffffffffffffffffffffffffffffffffffffff168273ffffffffffffffffffffffffffffffffffffffff1603610dd0578060025f8282540392505081905550610e1a565b805f5f8473ffffffffffffffffffffffffffffffffffffffff1673ffffffffffffffffffffffffffffffffffffffff1681526020019081526020015f205f82825401925050819055505b8173ffffffffffffffffffffffffffffffffffffffff168373ffffffffffffffffffffffffffffffffffffffff167fddf252ad1be2c89b69c2b068fc378daa952ba7f163c4a11628f55a4df523b3ef83604051610e779190611025565b60405180910390a3505050565b5f81519050919050565b5f82825260208201905092915050565b8281835e5f83830152505050565b5f601f19601f8301169050919050565b5f610ec682610e84565b610ed08185610e8e565b9350610ee0818560208601610e9e565b610ee981610eac565b840191505092915050565b5f6020820190508181035f830152610f0c8184610ebc565b905092915050565b5f5ffd5b5f73ffffffffffffffffffffffffffffffffffffffff82169050919050565b5f610f4182610f18565b9050919050565b610f5181610f37565b8114610f5b575f5ffd5b50565b5f81359050610f6c81610f48565b92915050565b5f819050919050565b610f8481610f72565b8114610f8e575f5ffd5b50565b5f81359050610f9f81610f7b565b92915050565b5f5f60408385031215610fbb57610fba610f14565b5b5f610fc885828601610f5e565b9250506020610fd985828601610f91565b9150509250929050565b5f8115159050919050565b610ff781610fe3565b82525050565b5f6020820190506110105f830184610fee565b92915050565b61101f81610f72565b82525050565b5f6020820190506110385f830184611016565b92915050565b5f5f5f6060848603121561105557611054610f14565b5b5f61106286828701610f5e565b935050602061107386828701610f5e565b925050604061108486828701610f91565b9150509250925092565b5f60ff82169050919050565b6110a38161108e565b82525050565b5f6020820190506110bc5f83018461109a565b92915050565b5f602082840312156110d7576110d6610f14565b5b5f6110e484828501610f91565b91505092915050565b5f6020828403121561110257611101610f14565b5b5f61110f84828501610f5e565b91505092915050565b61112181610f37565b82525050565b5f60208201905061113a5f830184611118565b92915050565b5f5f6040838503121561115657611155610f14565b5b5f61116385828601610f5e565b925050602061117485828601610f5e565b9150509250929050565b7f4e487b71000000000000000000000000000000000000000000000000000000005f52602260045260245ffd5b5f60028204905060018216806111c257607f821691505b6020821081036111d5576111d461117e565b5b50919050565b7f4e487b71000000000000000000000000000000000000000000000000000000005f52601160045260245ffd5b5f61121282610f72565b915061121d83610f72565b9250828201905080821115611235576112346111db565b5b92915050565b7f4d617820737570706c79206578636565646564000000000000000000000000005f82015250565b5f61126f601383610e8e565b915061127a8261123b565b602082019050919050565b5f6020820190508181035f83015261129c81611263565b9050919050565b5f6060820190506112b65f830186611118565b6112c36020830185611016565b6112d06040830184611016565b94935050505056fea2646970667358221220674df9ed5e3e4faf39f03d5a3264fb43a9eee0f26f7103219d564d4592dbe16c64736f6c63430008210033","linkReferences":{}},"methodIdentifiers":{"MAX_SUPPLY()":"32cb6b0c","allowance(address,address)":"dd62ed3e","approve(address,uint256)":"095ea7b3","balanceOf(address)":"70a08231","burn(uint256)":"42966c68","decimals()":"313ce567","mint(address,uint256)":"40c10f19","name()":"06fdde03","owner()":"8da5cb5b","renounceOwnership()":"715018a6","symbol()":"95d89b41","totalSupply()":"18160ddd","transfer(address,uint256)":"a9059cbb","transferFrom(address,address,uint256)":"23b872dd","transferOwnership(address)":"f2fde38b"},"id":22}